{
  "contractName": "KYCContract",
  "abi": [
    {
      "anonymous": false,
      "inputs": [
        {
          "indexed": true,
          "internalType": "address",
          "name": "userAddress",
          "type": "address"
        },
        {
          "indexed": false,
          "internalType": "string",
          "name": "name",
          "type": "string"
        },
        {
          "indexed": false,
          "internalType": "string",
          "name": "email",
          "type": "string"
        },
        {
          "indexed": false,
          "internalType": "string",
          "name": "phone",
          "type": "string"
        },
        {
          "indexed": false,
          "internalType": "string",
          "name": "dob",
          "type": "string"
        },
        {
          "indexed": false,
          "internalType": "string",
          "name": "aadhaar",
          "type": "string"
        },
        {
          "indexed": false,
          "internalType": "string",
          "name": "pan",
          "type": "string"
        },
        {
          "indexed": false,
          "internalType": "string",
          "name": "aadhaarFileHash",
          "type": "string"
        },
        {
          "indexed": false,
          "internalType": "string",
          "name": "panFileHash",
          "type": "string"
        }
      ],
      "name": "UserRegistered",
      "type": "event"
    },
    {
      "constant": true,
      "inputs": [
        {
          "internalType": "address",
          "name": "",
          "type": "address"
        }
      ],
      "name": "users",
      "outputs": [
        {
          "internalType": "string",
          "name": "name",
          "type": "string"
        },
        {
          "internalType": "string",
          "name": "email",
          "type": "string"
        },
        {
          "internalType": "string",
          "name": "phone",
          "type": "string"
        },
        {
          "internalType": "string",
          "name": "dob",
          "type": "string"
        },
        {
          "internalType": "string",
          "name": "aadhaar",
          "type": "string"
        },
        {
          "internalType": "string",
          "name": "pan",
          "type": "string"
        },
        {
          "internalType": "string",
          "name": "aadhaarFileHash",
          "type": "string"
        },
        {
          "internalType": "string",
          "name": "panFileHash",
          "type": "string"
        },
        {
          "internalType": "bool",
          "name": "isRegistered",
          "type": "bool"
        }
      ],
      "payable": false,
      "stateMutability": "view",
      "type": "function"
    },
    {
      "constant": false,
      "inputs": [
        {
          "components": [
            {
              "internalType": "string",
              "name": "name",
              "type": "string"
            },
            {
              "internalType": "string",
              "name": "email",
              "type": "string"
            },
            {
              "internalType": "string",
              "name": "phone",
              "type": "string"
            },
            {
              "internalType": "string",
              "name": "dob",
              "type": "string"
            },
            {
              "internalType": "string",
              "name": "aadhaar",
              "type": "string"
            },
            {
              "internalType": "string",
              "name": "pan",
              "type": "string"
            },
            {
              "internalType": "string",
              "name": "aadhaarFileHash",
              "type": "string"
            },
            {
              "internalType": "string",
              "name": "panFileHash",
              "type": "string"
            }
          ],
          "internalType": "struct KYCContract.UserDetails",
          "name": "_userDetails",
          "type": "tuple"
        }
      ],
      "name": "registerUser",
      "outputs": [],
      "payable": false,
      "stateMutability": "nonpayable",
      "type": "function"
    },
    {
      "constant": false,
      "inputs": [
        {
          "components": [
            {
              "internalType": "string",
              "name": "name",
              "type": "string"
            },
            {
              "internalType": "string",
              "name": "email",
              "type": "string"
            },
            {
              "internalType": "string",
              "name": "phone",
              "type": "string"
            },
            {
              "internalType": "string",
              "name": "dob",
              "type": "string"
            },
            {
              "internalType": "string",
              "name": "aadhaar",
              "type": "string"
            },
            {
              "internalType": "string",
              "name": "pan",
              "type": "string"
            },
            {
              "internalType": "string",
              "name": "aadhaarFileHash",
              "type": "string"
            },
            {
              "internalType": "string",
              "name": "panFileHash",
              "type": "string"
            }
          ],
          "internalType": "struct KYCContract.UserDetails",
          "name": "_userDetails",
          "type": "tuple"
        }
      ],
      "name": "updateUserDetails",
      "outputs": [],
      "payable": false,
      "stateMutability": "nonpayable",
      "type": "function"
    },
    {
      "constant": true,
      "inputs": [
        {
          "internalType": "address",
          "name": "_user",
          "type": "address"
        }
      ],
      "name": "getUserInfo",
      "outputs": [
        {
          "internalType": "string",
          "name": "name",
          "type": "string"
        },
        {
          "internalType": "string",
          "name": "email",
          "type": "string"
        },
        {
          "internalType": "string",
          "name": "phone",
          "type": "string"
        },
        {
          "internalType": "string",
          "name": "dob",
          "type": "string"
        },
        {
          "internalType": "string",
          "name": "aadhaar",
          "type": "string"
        },
        {
          "internalType": "string",
          "name": "pan",
          "type": "string"
        },
        {
          "internalType": "string",
          "name": "aadhaarFileHash",
          "type": "string"
        },
        {
          "internalType": "string",
          "name": "panFileHash",
          "type": "string"
        }
      ],
      "payable": false,
      "stateMutability": "view",
      "type": "function"
    }
  ],
  "bytecode": "0x608060405234801561001057600080fd5b50611784806100206000396000f3fe608060405234801561001057600080fd5b506004361061004c5760003560e01c80636386c1c7146100515780637fa3fecc14610088578063a87430ba146100a4578063cae90efe146100dc575b600080fd5b61006b6004803603610066919081019061123d565b6100f8565b60405161007f9897969594939291906113a8565b60405180910390f35b6100a2600480360361009d9190810190611266565b6106df565b005b6100be60048036036100b9919081019061123d565b6107f6565b6040516100d399989796959493929190611514565b60405180910390f35b6100f660048036036100f19190810190611266565b610d11565b005b60608060608060608060608061010c610f5b565b6000808b73ffffffffffffffffffffffffffffffffffffffff1673ffffffffffffffffffffffffffffffffffffffff16815260200190815260200160002060405180610120016040529081600082018054600181600116156101000203166002900480601f0160208091040260200160405190810160405280929190818152602001828054600181600116156101000203166002900480156101ef5780601f106101c4576101008083540402835291602001916101ef565b820191906000526020600020905b8154815290600101906020018083116101d257829003601f168201915b50505050508152602001600182018054600181600116156101000203166002900480601f0160208091040260200160405190810160405280929190818152602001828054600181600116156101000203166002900480156102915780601f1061026657610100808354040283529160200191610291565b820191906000526020600020905b81548152906001019060200180831161027457829003601f168201915b50505050508152602001600282018054600181600116156101000203166002900480601f0160208091040260200160405190810160405280929190818152602001828054600181600116156101000203166002900480156103335780601f1061030857610100808354040283529160200191610333565b820191906000526020600020905b81548152906001019060200180831161031657829003601f168201915b50505050508152602001600382018054600181600116156101000203166002900480601f0160208091040260200160405190810160405280929190818152602001828054600181600116156101000203166002900480156103d55780601f106103aa576101008083540402835291602001916103d5565b820191906000526020600020905b8154815290600101906020018083116103b857829003601f168201915b50505050508152602001600482018054600181600116156101000203166002900480601f0160208091040260200160405190810160405280929190818152602001828054600181600116156101000203166002900480156104775780601f1061044c57610100808354040283529160200191610477565b820191906000526020600020905b81548152906001019060200180831161045a57829003601f168201915b50505050508152602001600582018054600181600116156101000203166002900480601f0160208091040260200160405190810160405280929190818152602001828054600181600116156101000203166002900480156105195780601f106104ee57610100808354040283529160200191610519565b820191906000526020600020905b8154815290600101906020018083116104fc57829003601f168201915b50505050508152602001600682018054600181600116156101000203166002900480601f0160208091040260200160405190810160405280929190818152602001828054600181600116156101000203166002900480156105bb5780601f10610590576101008083540402835291602001916105bb565b820191906000526020600020905b81548152906001019060200180831161059e57829003601f168201915b50505050508152602001600782018054600181600116156101000203166002900480601f01602080910402602001604051908101604052809291908181526020018280546001816001161561010002031660029004801561065d5780601f106106325761010080835404028352916020019161065d565b820191906000526020600020905b81548152906001019060200180831161064057829003601f168201915b505050505081526020016008820160009054906101000a900460ff1615151515815250509050806000015181602001518260400151836060015184608001518560a001518660c001518760e001518797508696508595508494508393508292508191508090509850985098509850985098509850985050919395975091939597565b6000803373ffffffffffffffffffffffffffffffffffffffff1673ffffffffffffffffffffffffffffffffffffffff16815260200190815260200160002060080160009054906101000a900460ff161561076e576040517f08c379a0000000000000000000000000000000000000000000000000000000008152600401610765906115f9565b60405180910390fd5b61077781610dab565b3373ffffffffffffffffffffffffffffffffffffffff167f6d77a629f3a86ecf5ef44f1af72be264fee96fe77f71129d18349a807cd64069826000015183602001518460400151856060015186608001518760a001518860c001518960e001516040516107eb98979695949392919061145e565b60405180910390a250565b6000602052806000526040600020600091509050806000018054600181600116156101000203166002900480601f0160208091040260200160405190810160405280929190818152602001828054600181600116156101000203166002900480156108a25780601f10610877576101008083540402835291602001916108a2565b820191906000526020600020905b81548152906001019060200180831161088557829003601f168201915b505050505090806001018054600181600116156101000203166002900480601f0160208091040260200160405190810160405280929190818152602001828054600181600116156101000203166002900480156109405780601f1061091557610100808354040283529160200191610940565b820191906000526020600020905b81548152906001019060200180831161092357829003601f168201915b505050505090806002018054600181600116156101000203166002900480601f0160208091040260200160405190810160405280929190818152602001828054600181600116156101000203166002900480156109de5780601f106109b3576101008083540402835291602001916109de565b820191906000526020600020905b8154815290600101906020018083116109c157829003601f168201915b505050505090806003018054600181600116156101000203166002900480601f016020809104026020016040519081016040528092919081815260200182805460018160011615610100020316600290048015610a7c5780601f10610a5157610100808354040283529160200191610a7c565b820191906000526020600020905b815481529060010190602001808311610a5f57829003601f168201915b505050505090806004018054600181600116156101000203166002900480601f016020809104026020016040519081016040528092919081815260200182805460018160011615610100020316600290048015610b1a5780601f10610aef57610100808354040283529160200191610b1a565b820191906000526020600020905b815481529060010190602001808311610afd57829003601f168201915b505050505090806005018054600181600116156101000203166002900480601f016020809104026020016040519081016040528092919081815260200182805460018160011615610100020316600290048015610bb85780601f10610b8d57610100808354040283529160200191610bb8565b820191906000526020600020905b815481529060010190602001808311610b9b57829003601f168201915b505050505090806006018054600181600116156101000203166002900480601f016020809104026020016040519081016040528092919081815260200182805460018160011615610100020316600290048015610c565780601f10610c2b57610100808354040283529160200191610c56565b820191906000526020600020905b815481529060010190602001808311610c3957829003601f168201915b505050505090806007018054600181600116156101000203166002900480601f016020809104026020016040519081016040528092919081815260200182805460018160011615610100020316600290048015610cf45780601f10610cc957610100808354040283529160200191610cf4565b820191906000526020600020905b815481529060010190602001808311610cd757829003601f168201915b5050505050908060080160009054906101000a900460ff16905089565b6000803373ffffffffffffffffffffffffffffffffffffffff1673ffffffffffffffffffffffffffffffffffffffff16815260200190815260200160002060080160009054906101000a900460ff16610d9f576040517f08c379a0000000000000000000000000000000000000000000000000000000008152600401610d96906115d9565b60405180910390fd5b610da881610dab565b50565b60405180610120016040528082600001518152602001826020015181526020018260400151815260200182606001518152602001826080015181526020018260a0015181526020018260c0015181526020018260e001518152602001600115158152506000803373ffffffffffffffffffffffffffffffffffffffff1673ffffffffffffffffffffffffffffffffffffffff1681526020019081526020016000206000820151816000019080519060200190610e68929190610fa9565b506020820151816001019080519060200190610e85929190610fa9565b506040820151816002019080519060200190610ea2929190610fa9565b506060820151816003019080519060200190610ebf929190610fa9565b506080820151816004019080519060200190610edc929190610fa9565b5060a0820151816005019080519060200190610ef9929190610fa9565b5060c0820151816006019080519060200190610f16929190610fa9565b5060e0820151816007019080519060200190610f33929190610fa9565b506101008201518160080160006101000a81548160ff02191690831515021790555090505050565b60405180610120016040528060608152602001606081526020016060815260200160608152602001606081526020016060815260200160608152602001606081526020016000151581525090565b828054600181600116156101000203166002900490600052602060002090601f016020900481019282601f10610fea57805160ff1916838001178555611018565b82800160010185558215611018579182015b82811115611017578251825591602001919060010190610ffc565b5b5090506110259190611029565b5090565b61104b91905b8082111561104757600081600090555060010161102f565b5090565b90565b60008135905061105d8161172a565b92915050565b600082601f83011261107457600080fd5b813561108761108282611646565b611619565b915080825260208301602083018583830111156110a357600080fd5b6110ae8382846116d7565b50505092915050565b600061010082840312156110ca57600080fd5b6110d5610100611619565b9050600082013567ffffffffffffffff8111156110f157600080fd5b6110fd84828501611063565b600083015250602082013567ffffffffffffffff81111561111d57600080fd5b61112984828501611063565b602083015250604082013567ffffffffffffffff81111561114957600080fd5b61115584828501611063565b604083015250606082013567ffffffffffffffff81111561117557600080fd5b61118184828501611063565b606083015250608082013567ffffffffffffffff8111156111a157600080fd5b6111ad84828501611063565b60808301525060a082013567ffffffffffffffff8111156111cd57600080fd5b6111d984828501611063565b60a08301525060c082013567ffffffffffffffff8111156111f957600080fd5b61120584828501611063565b60c08301525060e082013567ffffffffffffffff81111561122557600080fd5b61123184828501611063565b60e08301525092915050565b60006020828403121561124f57600080fd5b600061125d8482850161104e565b91505092915050565b60006020828403121561127857600080fd5b600082013567ffffffffffffffff81111561129257600080fd5b61129e848285016110b7565b91505092915050565b6112b0816116ab565b82525050565b60006112c18261167d565b6112cb8185611688565b93506112db8185602086016116e6565b6112e481611719565b840191505092915050565b60006112fa82611672565b6113048185611688565b93506113148185602086016116e6565b61131d81611719565b840191505092915050565b6000611335601383611688565b91507f55736572206e6f742072656769737465726564000000000000000000000000006000830152602082019050919050565b6000611375601783611688565b91507f5573657220616c726561647920726567697374657265640000000000000000006000830152602082019050919050565b60006101008201905081810360008301526113c3818b6112b6565b905081810360208301526113d7818a6112b6565b905081810360408301526113eb81896112b6565b905081810360608301526113ff81886112b6565b9050818103608083015261141381876112b6565b905081810360a083015261142781866112b6565b905081810360c083015261143b81856112b6565b905081810360e083015261144f81846112b6565b90509998505050505050505050565b6000610100820190508181036000830152611479818b6112ef565b9050818103602083015261148d818a6112ef565b905081810360408301526114a181896112ef565b905081810360608301526114b581886112ef565b905081810360808301526114c981876112ef565b905081810360a08301526114dd81866112ef565b905081810360c08301526114f181856112ef565b905081810360e083015261150581846112ef565b90509998505050505050505050565b600061012082019050818103600083015261152f818c6112ef565b90508181036020830152611543818b6112ef565b90508181036040830152611557818a6112ef565b9050818103606083015261156b81896112ef565b9050818103608083015261157f81886112ef565b905081810360a083015261159381876112ef565b905081810360c08301526115a781866112ef565b905081810360e08301526115bb81856112ef565b90506115cb6101008301846112a7565b9a9950505050505050505050565b600060208201905081810360008301526115f281611328565b9050919050565b6000602082019050818103600083015261161281611368565b9050919050565b6000604051905081810181811067ffffffffffffffff8211171561163c57600080fd5b8060405250919050565b600067ffffffffffffffff82111561165d57600080fd5b601f19601f8301169050602081019050919050565b600081519050919050565b600081519050919050565b600082825260208201905092915050565b60006116a4826116b7565b9050919050565b60008115159050919050565b600073ffffffffffffffffffffffffffffffffffffffff82169050919050565b82818337600083830152505050565b60005b838110156117045780820151818401526020810190506116e9565b83811115611713576000848401525b50505050565b6000601f19601f8301169050919050565b61173381611699565b811461173e57600080fd5b5056fea365627a7a723158206e7d4899987753800fbb3ca1a4c35460ea39de4aa3b1fd383757811859debf816c6578706572696d656e74616cf564736f6c63430005100040",
  "source": "// SPDX-License-Identifier: MIT\r\npragma solidity ^0.5.0;\r\npragma experimental ABIEncoderV2; // Add this line to enable the ABIEncoderV2 feature\r\n\r\ncontract KYCContract {\r\n    struct User {\r\n        string name;\r\n        string email;\r\n        string phone;\r\n        string dob;\r\n        string aadhaar;\r\n        string pan;\r\n        string aadhaarFileHash;\r\n        string panFileHash;\r\n        bool isRegistered;\r\n    }\r\n\r\n    // Struct to group KYC details\r\n    struct UserDetails {\r\n        string name;\r\n        string email;\r\n        string phone;\r\n        string dob;\r\n        string aadhaar;\r\n        string pan;\r\n        string aadhaarFileHash;\r\n        string panFileHash;\r\n    }\r\n\r\n    mapping(address => User) public users;\r\n\r\n    event UserRegistered(\r\n        address indexed userAddress,\r\n        string name,\r\n        string email,\r\n        string phone,\r\n        string dob,\r\n        string aadhaar,\r\n        string pan,\r\n        string aadhaarFileHash,\r\n        string panFileHash\r\n    );\r\n\r\n    modifier onlyUnregistered() {\r\n        require(!users[msg.sender].isRegistered, \"User already registered\");\r\n        _;\r\n    }\r\n\r\n    modifier onlyRegistered() {\r\n        require(users[msg.sender].isRegistered, \"User not registered\");\r\n        _;\r\n    }\r\n\r\n    // Register a new user with all required information and file hashes\r\n    function registerUser(\r\n        UserDetails memory _userDetails\r\n    ) public onlyUnregistered {\r\n        _storeUserData(_userDetails);\r\n        emit UserRegistered(\r\n            msg.sender,\r\n            _userDetails.name,\r\n            _userDetails.email,\r\n            _userDetails.phone,\r\n            _userDetails.dob,\r\n            _userDetails.aadhaar,\r\n            _userDetails.pan,\r\n            _userDetails.aadhaarFileHash,\r\n            _userDetails.panFileHash\r\n        );\r\n    }\r\n\r\n    // Internal function to store the user's KYC information in the mapping\r\n    function _storeUserData(\r\n        UserDetails memory _userDetails\r\n    ) internal {\r\n        users[msg.sender] = User({\r\n            name: _userDetails.name,\r\n            email: _userDetails.email,\r\n            phone: _userDetails.phone,\r\n            dob: _userDetails.dob,\r\n            aadhaar: _userDetails.aadhaar,\r\n            pan: _userDetails.pan,\r\n            aadhaarFileHash: _userDetails.aadhaarFileHash,\r\n            panFileHash: _userDetails.panFileHash,\r\n            isRegistered: true\r\n        });\r\n    }\r\n\r\n    // Function to update the user's details (only after registration)\r\n    function updateUserDetails(\r\n        UserDetails memory _userDetails\r\n    ) public onlyRegistered {\r\n        _storeUserData(_userDetails);\r\n    }\r\n\r\n    // Function to get the user's information\r\n    function getUserInfo(address _user) public view returns (\r\n        string memory name,\r\n        string memory email,\r\n        string memory phone,\r\n        string memory dob,\r\n        string memory aadhaar,\r\n        string memory pan,\r\n        string memory aadhaarFileHash,\r\n        string memory panFileHash\r\n    ) {\r\n        User memory user = users[_user];\r\n        return (\r\n            user.name,\r\n            user.email,\r\n            user.phone,\r\n            user.dob,\r\n            user.aadhaar,\r\n            user.pan,\r\n            user.aadhaarFileHash,\r\n            user.panFileHash\r\n        );\r\n    }\r\n}\r\n",
  "sourcePath": "G:\\sem 2\\mini project -- progress\\suba laks\\Log_store\\src\\contracts\\KYCContract.sol",
  "compiler": {
    "name": "solc",
    "version": "0.5.16+commit.9c3226ce.Emscripten.clang"
  },
  "schemaVersion": "3.4.16",
  "updatedAt": "2025-05-02T15:35:23.139Z",
  "networkType": "ethereum",
  "devdoc": {
    "methods": {}
  },
  "userdoc": {
    "methods": {}
  }
}